{
  "transactions": [
    {
      "hash": "0x08181064ac87d24bc567cc432bf9e958968def0c31be7c33aba5e9fdaf6b3616",
      "transactionType": "CREATE",
      "contractName": "DevOpsTools",
      "contractAddress": "0xA2c1Fd22274959ba33be3476Df14757fBf845dcd",
      "function": null,
      "arguments": null,
      "transaction": {
        "type": "0x02",
        "from": "0xbeef454cbe839dd8727e56195aaad7fd037e6287",
        "gas": "0xebb6e",
        "data": "0x610c7861003a600b82828239805160001a60731461002d57634e487b7160e01b600052600060045260246000fd5b30600052607381538281f3fe730000000000000000000000000000000000000000301460806040526004361061006c5760003560e01c806326dceeb7146100715780632aa1c696146100ae5780633a768463146100e5578063a6066fa514610100578063d76ca83d14610108578063e374cdf11461011b575b600080fd5b81801561007d57600080fd5b5061009161008c366004610897565b61013b565b6040516001600160a01b0390911681526020015b60405180910390f35b6100d86040518060400160405280600b81526020016a0b8bd89c9bd85918d85cdd60aa1b81525081565b6040516100a59190610979565b610091737109709ecfa91a80626ff3989d68f67f5b1dd12d81565b6100d8610507565b6100d861011636600461098c565b610523565b81801561012757600080fd5b506100916101363660046109c1565b6106da565b600061014683610523565b925061015182610523565b60408051600180825281830190925291935060009190816020015b606081526020019060019003908161016c579050509050604051806040016040528060038152602001621c1dd960ea1b815250816000815181106101b2576101b2610a06565b6020908102919091010152604051638916046760e01b8152600090737109709ecfa91a80626ff3989d68f67f5b1dd12d906389160467906101f7908590600401610a1c565b6000604051808303816000875af1158015610216573d6000803e3d6000fd5b505050506040513d6000823e601f3d908101601f1916820160405261023e9190810190610ab5565b60408051600580825260c0820190925291925060009190816020015b606081526020019060019003908161025a579050509050604051806040016040528060048152602001630c4c2e6d60e31b815250816000815181106102a1576102a1610a06565b602002602001018190525081856040516020016102bf929190610afe565b604051602081830303815290604052816001815181106102e1576102e1610a06565b6020026020010181905250878160028151811061030057610300610a06565b602090810291909101015260405163348051d760e11b815260048101889052737109709ecfa91a80626ff3989d68f67f5b1dd12d90636900a3ae90602401600060405180830381865afa15801561035b573d6000803e3d6000fd5b505050506040513d6000823e601f3d908101601f191682016040526103839190810190610ab5565b8160038151811061039657610396610a06565b602002602001018190525081866040516020016103b4929190610b2d565b604051602081830303815290604052816004815181106103d6576103d6610a06565b6020908102919091010152604051638916046760e01b8152600090737109709ecfa91a80626ff3989d68f67f5b1dd12d9063891604679061041b908590600401610a1c565b6000604051808303816000875af115801561043a573d6000803e3d6000fd5b505050506040513d6000823e601f3d908101601f191682016040526104629190810190610ab5565b90506104916040518060400160405280600c81526020016b2932ba3ab937102230ba309d60a11b81525061072c565b61049a81610772565b60006104a582610b69565b60601c905080156104bc5794506104ff9350505050565b60405162461bcd60e51b8152602060048201526014602482015273139bc818dbdb9d1c9858dd0819195c1b1bde595960621b604482015260640160405180910390fd5b949350505050565b604051806060016040528060318152602001610c126031913981565b80516060908290600090815b835181101561057e5783818151811061054a5761054a610a06565b6020910101516001600160f81b031916600160fd1b1461056c5780925061057e565b8061057681610bbb565b91505061052f565b5082515b80156105d85783610594600183610bd4565b815181106105a4576105a4610a06565b6020910101516001600160f81b031916600160fd1b146105c6578091506105d8565b806105d081610be7565b915050610582565b508282815181106105eb576105eb610a06565b01602001516001600160f81b031916601760f91b036106125761060f600183610bfe565b91505b600061061e8383610bd4565b67ffffffffffffffff811115610636576106366107d2565b6040519080825280601f01601f191660200182016040528015610660576020820181803683370190505b50905060005b81518110156106d0578461067a8286610bfe565b8151811061068a5761068a610a06565b602001015160f81c60f81b8282815181106106a7576106a7610a06565b60200101906001600160f81b031916908160001a905350806106c881610bbb565b915050610666565b5095945050505050565b600061072383836040518060400160405280600b81526020016a0b8bd89c9bd85918d85cdd60aa1b815250604051806060016040528060318152602001610c126031913961013b565b90505b92915050565b61076f816040516024016107409190610979565b60408051601f198184030181529190526020810180516001600160e01b031663104c13eb60e21b1790526107b1565b50565b61076f816040516024016107869190610979565b60408051601f198184030181529190526020810180516001600160e01b03166305f3bfab60e11b1790525b80516a636f6e736f6c652e6c6f67602083016000808483855afa5050505050565b634e487b7160e01b600052604160045260246000fd5b604051601f8201601f1916810167ffffffffffffffff81118282101715610811576108116107d2565b604052919050565b600067ffffffffffffffff821115610833576108336107d2565b50601f01601f191660200190565b600082601f83011261085257600080fd5b813561086561086082610819565b6107e8565b81815284602083860101111561087a57600080fd5b816020850160208301376000918101602001919091529392505050565b600080600080608085870312156108ad57600080fd5b843567ffffffffffffffff808211156108c557600080fd5b6108d188838901610841565b95506020870135945060408701359150808211156108ee57600080fd5b6108fa88838901610841565b9350606087013591508082111561091057600080fd5b5061091d87828801610841565b91505092959194509250565b60005b8381101561094457818101518382015260200161092c565b50506000910152565b60008151808452610965816020860160208601610929565b601f01601f19169290920160200192915050565b602081526000610723602083018461094d565b60006020828403121561099e57600080fd5b813567ffffffffffffffff8111156109b557600080fd5b6104ff84828501610841565b600080604083850312156109d457600080fd5b823567ffffffffffffffff8111156109eb57600080fd5b6109f785828601610841565b95602094909401359450505050565b634e487b7160e01b600052603260045260246000fd5b6000602080830181845280855180835260408601915060408160051b870101925083870160005b82811015610a7157603f19888603018452610a5f85835161094d565b94509285019290850190600101610a43565b5092979650505050505050565b6000610a8c61086084610819565b9050828152838383011115610aa057600080fd5b610aae836020830184610929565b9392505050565b600060208284031215610ac757600080fd5b815167ffffffffffffffff811115610ade57600080fd5b8201601f81018413610aef57600080fd5b6104ff84825160208401610a7e565b60008351610b10818460208801610929565b835190830190610b24818360208801610929565b01949350505050565b60008351610b3f818460208801610929565b602f60f81b9083019081528351610b5d816001840160208801610929565b01600101949350505050565b805160208201516bffffffffffffffffffffffff198082169291906014831015610b9d5780818460140360031b1b83161693505b505050919050565b634e487b7160e01b600052601160045260246000fd5b600060018201610bcd57610bcd610ba5565b5060010190565b8181038181111561072657610726610ba5565b600081610bf657610bf6610ba5565b506000190190565b8082018082111561072657610726610ba556fe2e2f6c69622f666f756e6472792d6465766f70732f7372632f6765745f726563656e745f6465706c6f796d656e742e7368a2646970667358221220699f54ad7394b44b3ec8b6caa6c854628867749f4870bf0f0aba02f2564492c864736f6c63430008130033",
        "nonce": "0x0",
        "accessList": []
      },
      "additionalContracts": [],
      "isFixedGasLimit": false
    },
    {
      "hash": "0x3455dfceeea6f4c80936d20eb0869a93aa49041dd9a3aeddb77fc6c60dadf3be",
      "transactionType": "CALL",
      "contractName": "VRFCoordinatorV2",
      "contractAddress": "0x8103B0A8A00be2DDC778e6e7eaa21791Cd364625",
      "function": "createSubscription()",
      "arguments": [],
      "transaction": {
        "type": "0x02",
        "from": "0xbeef454cbe839dd8727e56195aaad7fd037e6287",
        "to": "0x8103b0a8a00be2ddc778e6e7eaa21791cd364625",
        "gas": "0x1558c",
        "value": "0x0",
        "data": "0xa21a23e4",
        "nonce": "0x1",
        "accessList": []
      },
      "additionalContracts": [],
      "isFixedGasLimit": false
    },
    {
      "hash": "0x2b7ce4ec9a2b11cbffd82756a259cb026272b4176250d96f3c12e2dd6ec6da67",
      "transactionType": "CALL",
      "contractName": "LinkToken",
      "contractAddress": "0x779877A7B0D9E8603169DdbD7836e478b4624789",
      "function": "transferAndCall(address,uint256,bytes)",
      "arguments": [
        "0x8103B0A8A00be2DDC778e6e7eaa21791Cd364625",
        "3000000000000000000",
        "0x0000000000000000000000000000000000000000000000000000000000001bb3"
      ],
      "transaction": {
        "type": "0x02",
        "from": "0xbeef454cbe839dd8727e56195aaad7fd037e6287",
        "to": "0x779877a7b0d9e8603169ddbd7836e478b4624789",
        "gas": "0x1b43f",
        "value": "0x0",
        "data": "0x4000aea00000000000000000000000008103b0a8a00be2ddc778e6e7eaa21791cd36462500000000000000000000000000000000000000000000000029a2241af62c0000000000000000000000000000000000000000000000000000000000000000006000000000000000000000000000000000000000000000000000000000000000200000000000000000000000000000000000000000000000000000000000001bb3",
        "nonce": "0x2",
        "accessList": []
      },
      "additionalContracts": [],
      "isFixedGasLimit": false
    },
    {
      "hash": "0xbb2fced6d64bd23fb3ecaa57c28f726a80a1f06f043c669f58a6825d88821ed2",
      "transactionType": "CREATE",
      "contractName": "Raffle",
      "contractAddress": "0xE0157a9d7FF1158088FB5b26F7477C07E819A171",
      "function": null,
      "arguments": [
        "10000000000000000",
        "30",
        "0x8103B0A8A00be2DDC778e6e7eaa21791Cd364625",
        "0x474e34a077df58807dbe9c96d3c009b23b3c6d0cce433e59bbf5b34f823bc56c",
        "7091",
        "500000"
      ],
      "transaction": {
        "type": "0x02",
        "from": "0xbeef454cbe839dd8727e56195aaad7fd037e6287",
        "gas": "0xdfd3c",
        "value": "0x0",
        "data": "0x61016060405234801561001157600080fd5b50604051610cc7380380610cc783398101604081905261003091610084565b6001600160a01b0393909316608081905260a09590955260c0939093524260025560e093909352610100929092526001600160401b03166101205263ffffffff16610140526001805460ff1916905561010f565b60008060008060008060c0878903121561009d57600080fd5b86516020880151604089015191975095506001600160a01b03811681146100c357600080fd5b6060880151608089015191955093506001600160401b03811681146100e757600080fd5b60a088015190925063ffffffff8116811461010157600080fd5b809150509295509295509295565b60805160a05160c05160e051610100516101205161014051610b4a61017d60003960006103960152600061035f01526000610339015260006103d50152600081816102e6015261047e01526000818160a5015261054b0152600081816101f701526102390152610b4a6000f3fe6080604052600436106100915760003560e01c806355c9e9261161005957806355c9e9261461016c5780636e04ff0d14610181578063c1c244e8146101af578063e55ae4e8146101c4578063e97dcb62146101e457600080fd5b806309bc33a714610096578063115cbaf5146100d85780631fe543e3146100f85780634585e33b1461011a578063473f1ddc1461013a575b600080fd5b3480156100a257600080fd5b507f00000000000000000000000000000000000000000000000000000000000000005b6040519081526020015b60405180910390f35b3480156100e457600080fd5b5060015460ff166040516100cf9190610803565b34801561010457600080fd5b50610118610113366004610872565b6101ec565b005b34801561012657600080fd5b50610118610135366004610924565b610279565b34801561014657600080fd5b506003546001600160a01b03165b6040516001600160a01b0390911681526020016100cf565b34801561017857600080fd5b506000546100c5565b34801561018d57600080fd5b506101a161019c366004610996565b610476565b6040516100cf929190610a2b565b3480156101bb57600080fd5b506002546100c5565b3480156101d057600080fd5b506101546101df366004610a83565b61051a565b610118610549565b336001600160a01b037f0000000000000000000000000000000000000000000000000000000000000000161461026b5760405163073e64fd60e21b81523360048201526001600160a01b037f00000000000000000000000000000000000000000000000000000000000000001660248201526044015b60405180910390fd5b610275828261062d565b5050565b600061029360405180602001604052806000815250610476565b509050806102e4576000546001805447929160ff909116908111156102ba576102ba6107ed565b604051632c2193d560e11b8152600481019390935260248301919091526044820152606401610262565b7f0000000000000000000000000000000000000000000000000000000000000000600254426103139190610a9c565b101561031e57600080fd5b6001805460ff1916811781556040516305d3b1d360e41b81527f000000000000000000000000000000000000000000000000000000000000000060048201527f000000000000000000000000000000000000000000000000000000000000000067ffffffffffffffff166024820152600360448201527f000000000000000000000000000000000000000000000000000000000000000063ffffffff16606482015260848101919091526000906001600160a01b037f00000000000000000000000000000000000000000000000000000000000000001690635d3b1d309060a4016020604051808303816000875af115801561041e573d6000803e3d6000fd5b505050506040513d601f19601f820116820180604052508101906104429190610ac3565b60405190915081907fcd6e45c8998311cab7e9d4385596cac867e20a0587194b954fa3a731c93ce78b90600090a250505050565b6000606060007f0000000000000000000000000000000000000000000000000000000000000000600254426104ab9190610a9c565b101590506000806001805460ff16908111156104c9576104c96107ed565b600054911491504715159015158380156104e05750825b80156104e95750815b80156104f25750805b60408051808201909152600381526203078360ec1b6020820152909890975095505050505050565b600080828154811061052e5761052e610adc565b6000918252602090912001546001600160a01b031692915050565b7f000000000000000000000000000000000000000000000000000000000000000034101561058a57604051634826f45560e01b815260040160405180910390fd5b60006001805460ff16908111156105a3576105a36107ed565b146105c15760405163349289c560e21b815260040160405180910390fd5b600080546001810182558180527f290decd9548b62a8d60345a988386fc84ba6bc95484008f6362f93160ef3e5630180546001600160a01b0319163390811790915560405190917f819fbd717c9d0b421352c5116a644ca68ba176960c33f406f08d98a27370ca2791a2565b6000805482518390839061064357610643610adc565b60200260200101516106559190610af2565b9050600080828154811061066b5761066b610adc565b6000918252602080832091909101546001805460ff19169055604080518481529283019081905291516001600160a01b0390911693506106ac929190610773565b5042600255600380546001600160a01b0319166001600160a01b0383169081179091556040517fb112587e57bfa970257f3d54fc52859c6300f6bd7a982462c320fed45c2530ed90600090a26000816001600160a01b03164760405160006040518083038185875af1925050503d8060008114610745576040519150601f19603f3d011682016040523d82523d6000602084013e61074a565b606091505b505090508061076c5760405163a1d04b3960e01b815260040160405180910390fd5b5050505050565b8280548282559060005260206000209081019282156107c8579160200282015b828111156107c857825182546001600160a01b0319166001600160a01b03909116178255602090920191600190910190610793565b506107d49291506107d8565b5090565b5b808211156107d457600081556001016107d9565b634e487b7160e01b600052602160045260246000fd5b602081016002831061082557634e487b7160e01b600052602160045260246000fd5b91905290565b634e487b7160e01b600052604160045260246000fd5b604051601f8201601f1916810167ffffffffffffffff8111828210171561086a5761086a61082b565b604052919050565b6000806040838503121561088557600080fd5b8235915060208084013567ffffffffffffffff808211156108a557600080fd5b818601915086601f8301126108b957600080fd5b8135818111156108cb576108cb61082b565b8060051b91506108dc848301610841565b81815291830184019184810190898411156108f657600080fd5b938501935b83851015610914578435825293850193908501906108fb565b8096505050505050509250929050565b6000806020838503121561093757600080fd5b823567ffffffffffffffff8082111561094f57600080fd5b818501915085601f83011261096357600080fd5b81358181111561097257600080fd5b86602082850101111561098457600080fd5b60209290920196919550909350505050565b600060208083850312156109a957600080fd5b823567ffffffffffffffff808211156109c157600080fd5b818501915085601f8301126109d557600080fd5b8135818111156109e7576109e761082b565b6109f9601f8201601f19168501610841565b91508082528684828501011115610a0f57600080fd5b8084840185840137600090820190930192909252509392505050565b821515815260006020604081840152835180604085015260005b81811015610a6157858101830151858201606001528201610a45565b506000606082860101526060601f19601f830116850101925050509392505050565b600060208284031215610a9557600080fd5b5035919050565b81810381811115610abd57634e487b7160e01b600052601160045260246000fd5b92915050565b600060208284031215610ad557600080fd5b5051919050565b634e487b7160e01b600052603260045260246000fd5b600082610b0f57634e487b7160e01b600052601260045260246000fd5b50069056fea26469706673582212203a1c040b61d3f92b4162a7e0c092074bfcb8193c15cccf2358ba6aef7d42698464736f6c63430008130033000000000000000000000000000000000000000000000000002386f26fc10000000000000000000000000000000000000000000000000000000000000000001e0000000000000000000000008103b0a8a00be2ddc778e6e7eaa21791cd364625474e34a077df58807dbe9c96d3c009b23b3c6d0cce433e59bbf5b34f823bc56c0000000000000000000000000000000000000000000000000000000000001bb3000000000000000000000000000000000000000000000000000000000007a120",
        "nonce": "0x3",
        "accessList": []
      },
      "additionalContracts": [],
      "isFixedGasLimit": false
    },
    {
      "hash": "0xf0d941b8304d2d0340836ea60dc9b2d3553327ac9b87d75dacb31b165f1b139f",
      "transactionType": "CALL",
      "contractName": "VRFCoordinatorV2",
      "contractAddress": "0x8103B0A8A00be2DDC778e6e7eaa21791Cd364625",
      "function": "addConsumer(uint64,address)",
      "arguments": [
        "7091",
        "0xE0157a9d7FF1158088FB5b26F7477C07E819A171"
      ],
      "transaction": {
        "type": "0x02",
        "from": "0xbeef454cbe839dd8727e56195aaad7fd037e6287",
        "to": "0x8103b0a8a00be2ddc778e6e7eaa21791cd364625",
        "gas": "0x21eb0",
        "value": "0x0",
        "data": "0x7341c10c0000000000000000000000000000000000000000000000000000000000001bb3000000000000000000000000e0157a9d7ff1158088fb5b26f7477c07e819a171",
        "nonce": "0x4",
        "accessList": []
      },
      "additionalContracts": [],
      "isFixedGasLimit": false
    }
  ],
  "receipts": [
    {
      "transactionHash": "0x08181064ac87d24bc567cc432bf9e958968def0c31be7c33aba5e9fdaf6b3616",
      "transactionIndex": "0x23",
      "blockHash": "0x83d9b6ec107188924d1d1a54051159e81e254cae34ed9953e3ab860bad619993",
      "blockNumber": "0x48020d",
      "from": "0xbeef454CBE839DD8727e56195aaaD7FD037e6287",
      "to": null,
      "cumulativeGasUsed": "0x2f1364",
      "gasUsed": "0xb55e6",
      "contractAddress": "0xA2c1Fd22274959ba33be3476Df14757fBf845dcd",
      "logs": [],
      "status": "0x1",
      "logsBloom": "0x00000000000000000000000000000000000000000000000000000000000000000000000000000000000000000000000000000000000000000000000000000000000000000000000000000000000000000000000000000000000000000000000000000000000000000000000000000000000000000000000000000000000000000000000000000000000000000000000000000000000000000000000000000000000000000000000000000000000000000000000000000000000000000000000000000000000000000000000000000000000000000000000000000000000000000000000000000000000000000000000000000000000000000000000000000000",
      "type": "0x2",
      "effectiveGasPrice": "0xb4ab5945"
    },
    {
      "transactionHash": "0x3455dfceeea6f4c80936d20eb0869a93aa49041dd9a3aeddb77fc6c60dadf3be",
      "transactionIndex": "0x25",
      "blockHash": "0x83d9b6ec107188924d1d1a54051159e81e254cae34ed9953e3ab860bad619993",
      "blockNumber": "0x48020d",
      "from": "0xbeef454CBE839DD8727e56195aaaD7FD037e6287",
      "to": "0x8103B0A8A00be2DDC778e6e7eaa21791Cd364625",
      "cumulativeGasUsed": "0x346eff",
      "gasUsed": "0xe98a",
      "contractAddress": null,
      "logs": [
        {
          "address": "0x8103B0A8A00be2DDC778e6e7eaa21791Cd364625",
          "topics": [
            "0x464722b4166576d3dcbba877b999bc35cf911f4eaf434b7eba68fa113951d0bf",
            "0x0000000000000000000000000000000000000000000000000000000000001bb3"
          ],
          "data": "0x000000000000000000000000beef454cbe839dd8727e56195aaad7fd037e6287",
          "blockHash": "0x83d9b6ec107188924d1d1a54051159e81e254cae34ed9953e3ab860bad619993",
          "blockNumber": "0x48020d",
          "transactionHash": "0x3455dfceeea6f4c80936d20eb0869a93aa49041dd9a3aeddb77fc6c60dadf3be",
          "transactionIndex": "0x25",
          "logIndex": "0x21",
          "removed": false
        }
      ],
      "status": "0x1",
      "logsBloom": "0x0000000000000000000001000000000000000000000000000000000000000000010000000000000000000000000000000000000000000000000000000000000000000000000000000000000000000000000000100000000000000000000000000000000000000000000000000000000000000000000000000001000000000000000000000c000020000001000000000000000000000000000000000000000000000000000000000000000000000000000000000000000000000000000000000000000000000000200000000000000000000000000000000000000000000000000000000000000000000000000000000000000000000000000000000000000000",
      "type": "0x2",
      "effectiveGasPrice": "0xb4ab5945"
    },
    {
      "transactionHash": "0x2b7ce4ec9a2b11cbffd82756a259cb026272b4176250d96f3c12e2dd6ec6da67",
      "transactionIndex": "0x26",
      "blockHash": "0x83d9b6ec107188924d1d1a54051159e81e254cae34ed9953e3ab860bad619993",
      "blockNumber": "0x48020d",
      "from": "0xbeef454CBE839DD8727e56195aaaD7FD037e6287",
      "to": "0x779877A7B0D9E8603169DdbD7836e478b4624789",
      "cumulativeGasUsed": "0x359949",
      "gasUsed": "0x12a4a",
      "contractAddress": null,
      "logs": [
        {
          "address": "0x779877A7B0D9E8603169DdbD7836e478b4624789",
          "topics": [
            "0xddf252ad1be2c89b69c2b068fc378daa952ba7f163c4a11628f55a4df523b3ef",
            "0x000000000000000000000000beef454cbe839dd8727e56195aaad7fd037e6287",
            "0x0000000000000000000000008103b0a8a00be2ddc778e6e7eaa21791cd364625"
          ],
          "data": "0x00000000000000000000000000000000000000000000000029a2241af62c0000",
          "blockHash": "0x83d9b6ec107188924d1d1a54051159e81e254cae34ed9953e3ab860bad619993",
          "blockNumber": "0x48020d",
          "transactionHash": "0x2b7ce4ec9a2b11cbffd82756a259cb026272b4176250d96f3c12e2dd6ec6da67",
          "transactionIndex": "0x26",
          "logIndex": "0x22",
          "removed": false
        },
        {
          "address": "0x779877A7B0D9E8603169DdbD7836e478b4624789",
          "topics": [
            "0xe19260aff97b920c7df27010903aeb9c8d2be5d310a2c67824cf3f15396e4c16",
            "0x000000000000000000000000beef454cbe839dd8727e56195aaad7fd037e6287",
            "0x0000000000000000000000008103b0a8a00be2ddc778e6e7eaa21791cd364625"
          ],
          "data": "0x00000000000000000000000000000000000000000000000029a2241af62c0000000000000000000000000000000000000000000000000000000000000000004000000000000000000000000000000000000000000000000000000000000000200000000000000000000000000000000000000000000000000000000000001bb3",
          "blockHash": "0x83d9b6ec107188924d1d1a54051159e81e254cae34ed9953e3ab860bad619993",
          "blockNumber": "0x48020d",
          "transactionHash": "0x2b7ce4ec9a2b11cbffd82756a259cb026272b4176250d96f3c12e2dd6ec6da67",
          "transactionIndex": "0x26",
          "logIndex": "0x23",
          "removed": false
        },
        {
          "address": "0x8103B0A8A00be2DDC778e6e7eaa21791Cd364625",
          "topics": [
            "0xd39ec07f4e209f627a4c427971473820dc129761ba28de8906bd56f57101d4f8",
            "0x0000000000000000000000000000000000000000000000000000000000001bb3"
          ],
          "data": "0x000000000000000000000000000000000000000000000000000000000000000000000000000000000000000000000000000000000000000029a2241af62c0000",
          "blockHash": "0x83d9b6ec107188924d1d1a54051159e81e254cae34ed9953e3ab860bad619993",
          "blockNumber": "0x48020d",
          "transactionHash": "0x2b7ce4ec9a2b11cbffd82756a259cb026272b4176250d96f3c12e2dd6ec6da67",
          "transactionIndex": "0x26",
          "logIndex": "0x24",
          "removed": false
        }
      ],
      "status": "0x1",
      "logsBloom": "0x0000001400000000000000000000000000000000000000020000000002000000000000000000800000000000000000000000000000000000000000000000100000000000000000000000000800000000000000100000000000002000000000000000000000000000000000000000000000000000400000000001001000000000000000000c000020000001000000800010000020000000000000000000000000000000000000000000000000000000000000000000000000000400000000000000000002000000000000000000000000000000000000000100800000000000000000000100000000000000000000000000000000000000000000000000000000",
      "type": "0x2",
      "effectiveGasPrice": "0xb4ab5945"
    },
    {
      "transactionHash": "0xbb2fced6d64bd23fb3ecaa57c28f726a80a1f06f043c669f58a6825d88821ed2",
      "transactionIndex": "0x27",
      "blockHash": "0x83d9b6ec107188924d1d1a54051159e81e254cae34ed9953e3ab860bad619993",
      "blockNumber": "0x48020d",
      "from": "0xbeef454CBE839DD8727e56195aaaD7FD037e6287",
      "to": null,
      "cumulativeGasUsed": "0x405cef",
      "gasUsed": "0xac3a6",
      "contractAddress": "0xE0157a9d7FF1158088FB5b26F7477C07E819A171",
      "logs": [],
      "status": "0x1",
      "logsBloom": "0x00000000000000000000000000000000000000000000000000000000000000000000000000000000000000000000000000000000000000000000000000000000000000000000000000000000000000000000000000000000000000000000000000000000000000000000000000000000000000000000000000000000000000000000000000000000000000000000000000000000000000000000000000000000000000000000000000000000000000000000000000000000000000000000000000000000000000000000000000000000000000000000000000000000000000000000000000000000000000000000000000000000000000000000000000000000",
      "type": "0x2",
      "effectiveGasPrice": "0xb4ab5945"
    },
    {
      "transactionHash": "0xf0d941b8304d2d0340836ea60dc9b2d3553327ac9b87d75dacb31b165f1b139f",
      "transactionIndex": "0x28",
      "blockHash": "0x83d9b6ec107188924d1d1a54051159e81e254cae34ed9953e3ab860bad619993",
      "blockNumber": "0x48020d",
      "from": "0xbeef454CBE839DD8727e56195aaaD7FD037e6287",
      "to": "0x8103B0A8A00be2DDC778e6e7eaa21791Cd364625",
      "cumulativeGasUsed": "0x41d001",
      "gasUsed": "0x17312",
      "contractAddress": null,
      "logs": [
        {
          "address": "0x8103B0A8A00be2DDC778e6e7eaa21791Cd364625",
          "topics": [
            "0x43dc749a04ac8fb825cbd514f7c0e13f13bc6f2ee66043b76629d51776cff8e0",
            "0x0000000000000000000000000000000000000000000000000000000000001bb3"
          ],
          "data": "0x000000000000000000000000e0157a9d7ff1158088fb5b26f7477c07e819a171",
          "blockHash": "0x83d9b6ec107188924d1d1a54051159e81e254cae34ed9953e3ab860bad619993",
          "blockNumber": "0x48020d",
          "transactionHash": "0xf0d941b8304d2d0340836ea60dc9b2d3553327ac9b87d75dacb31b165f1b139f",
          "transactionIndex": "0x28",
          "logIndex": "0x25",
          "removed": false
        }
      ],
      "status": "0x1",
      "logsBloom": "0x0000000000000000000000000000000000000000000000000000000000000000000000000000000000000000000000000000000000000000000000000000000000000000000000000000000000000000000000100000000000000000000000000000000000008000000000000000000000000000000000000001000000000000000000000c000020000001000000000000000000000000000000000000000000000000000000000000000080000000000000000000000000000000000000000000000000000000000000000000000000000000000000000000020000000000000000000000000000000000000000000000000000000000000000000000000000",
      "type": "0x2",
      "effectiveGasPrice": "0xb4ab5945"
    }
  ],
  "libraries": [
    "lib/foundry-devops/src/DevOpsTools.sol:DevOpsTools:0xa2c1fd22274959ba33be3476df14757fbf845dcd"
  ],
  "pending": [],
  "returns": {
    "0": {
      "internal_type": "contract Raffle",
      "value": "0xE0157a9d7FF1158088FB5b26F7477C07E819A171"
    },
    "1": {
      "internal_type": "contract HelperConfig",
      "value": "0xC7f2Cf4845C6db0e1a1e91ED41Bcd0FcC1b0E141"
    }
  },
  "timestamp": 1700322304,
  "chain": 11155111,
  "multi": false,
  "commit": "495add2"
}